{
  "transactions": [
    {
      "hash": "0x7b0f512e99d97816b28f4099d267d5f2e0e897cd1f75353bbccf1858f4b80ff0",
      "transactionType": "CALL",
      "contractName": null,
      "contractAddress": "0xe03a1074c86cfedd5c142c4f04f1a1536e203543",
      "function": "initialize((address,address,uint24,int24,address),uint160)",
      "arguments": [
        "(0x1c7D4B196Cb0C7B01d743Fbc6116a902379C7238, 0xdd13E55209Fd76AfE204dBda4007C227904f0a81, 3000, 60, 0x5d50Dc1eC0DF66a46521fEb657b5E9b6e76b0088)",
        "79228162514264337593543950336"
      ],
      "transaction": {
        "from": "0xe769800585e8f2dfe7ac396dd2d9201a1e95fea6",
        "to": "0xe03a1074c86cfedd5c142c4f04f1a1536e203543",
        "gas": "0x11738",
        "value": "0x0",
        "input": "0x6276cbbe0000000000000000000000001c7d4b196cb0c7b01d743fbc6116a902379c7238000000000000000000000000dd13e55209fd76afe204dbda4007c227904f0a810000000000000000000000000000000000000000000000000000000000000bb8000000000000000000000000000000000000000000000000000000000000003c0000000000000000000000005d50dc1ec0df66a46521feb657b5e9b6e76b00880000000000000000000000000000000000000001000000000000000000000000",
        "nonce": "0xd9",
        "chainId": "0xaa36a7"
      },
      "additionalContracts": [],
      "isFixedGasLimit": false
    }
  ],
  "receipts": [
    {
      "status": "0x1",
      "cumulativeGasUsed": "0x60473d",
      "logs": [
        {
          "address": "0xe03a1074c86cfedd5c142c4f04f1a1536e203543",
          "topics": [
            "0xdd466e674ea557f56295e2d0218a125ea4b4f0f6f3307b95f85e6110838d6438",
            "0x2d5b3cf0cb2cfa51c6ce03dd5196cde2988f24d476f2f11b07c2549fc7c47b8d",
            "0x0000000000000000000000001c7d4b196cb0c7b01d743fbc6116a902379c7238",
            "0x000000000000000000000000dd13e55209fd76afe204dbda4007c227904f0a81"
          ],
          "data": "0x0000000000000000000000000000000000000000000000000000000000000bb8000000000000000000000000000000000000000000000000000000000000003c0000000000000000000000005d50dc1ec0df66a46521feb657b5e9b6e76b008800000000000000000000000000000000000000010000000000000000000000000000000000000000000000000000000000000000000000000000000000000000",
          "blockHash": "0x911ba072d56094d62095373ca3fa69c68ea2c1e393d62b7f34b90912b436060a",
          "blockNumber": "0x95f429",
          "blockTimestamp": "0x693c9a08",
          "transactionHash": "0x7b0f512e99d97816b28f4099d267d5f2e0e897cd1f75353bbccf1858f4b80ff0",
          "transactionIndex": "0x37",
          "logIndex": "0x49",
          "removed": false
        }
      ],
      "logsBloom": "0x00000000000000000000000000000000000000000000000000000400000000000000000000000000000000000000000000000100000004000000000000000800100000000000000000000000000000000000000000000000000000000000000000000000000000000000000000000000000000000000100000000000000000000000000000000008000000000040000000000001000000000000000000200000000000000100000000002000000000000000008000000000000000000000000000000000000000000000000000000000000000080000000000000000000000001000000000000000000000000000000000000000000000000000000000000000",
      "type": "0x2",
      "transactionHash": "0x7b0f512e99d97816b28f4099d267d5f2e0e897cd1f75353bbccf1858f4b80ff0",
      "transactionIndex": "0x37",
      "blockHash": "0x911ba072d56094d62095373ca3fa69c68ea2c1e393d62b7f34b90912b436060a",
      "blockNumber": "0x95f429",
      "gasUsed": "0xca27",
      "effectiveGasPrice": "0xf4240",
      "from": "0xe769800585e8f2dfe7ac396dd2d9201a1e95fea6",
      "to": "0xe03a1074c86cfedd5c142c4f04f1a1536e203543",
      "contractAddress": null
    }
  ],
  "libraries": [],
  "pending": [],
  "returns": {},
  "timestamp": 1765579274080,
  "chain": 11155111,
  "commit": "c6fc7b66"
}